{
  "contractName": "FifaToken",
  "abi": [
    {
      "inputs": [],
      "stateMutability": "nonpayable",
      "type": "constructor"
    },
    {
      "anonymous": false,
      "inputs": [
        {
          "indexed": true,
          "internalType": "address",
          "name": "owner",
          "type": "address"
        },
        {
          "indexed": true,
          "internalType": "address",
          "name": "approved",
          "type": "address"
        },
        {
          "indexed": true,
          "internalType": "uint256",
          "name": "tokenId",
          "type": "uint256"
        }
      ],
      "name": "Approval",
      "type": "event"
    },
    {
      "anonymous": false,
      "inputs": [
        {
          "indexed": true,
          "internalType": "address",
          "name": "owner",
          "type": "address"
        },
        {
          "indexed": true,
          "internalType": "address",
          "name": "operator",
          "type": "address"
        },
        {
          "indexed": false,
          "internalType": "bool",
          "name": "approved",
          "type": "bool"
        }
      ],
      "name": "ApprovalForAll",
      "type": "event"
    },
    {
      "anonymous": false,
      "inputs": [
        {
          "indexed": true,
          "internalType": "address",
          "name": "from",
          "type": "address"
        },
        {
          "indexed": true,
          "internalType": "address",
          "name": "to",
          "type": "address"
        },
        {
          "indexed": true,
          "internalType": "uint256",
          "name": "tokenId",
          "type": "uint256"
        }
      ],
      "name": "Transfer",
      "type": "event"
    },
    {
      "inputs": [
        {
          "internalType": "address",
          "name": "to",
          "type": "address"
        },
        {
          "internalType": "uint256",
          "name": "tokenId",
          "type": "uint256"
        }
      ],
      "name": "approve",
      "outputs": [],
      "stateMutability": "nonpayable",
      "type": "function"
    },
    {
      "inputs": [
        {
          "internalType": "address",
          "name": "owner",
          "type": "address"
        }
      ],
      "name": "balanceOf",
      "outputs": [
        {
          "internalType": "uint256",
          "name": "",
          "type": "uint256"
        }
      ],
      "stateMutability": "view",
      "type": "function",
      "constant": true
    },
    {
      "inputs": [],
      "name": "baseURI",
      "outputs": [
        {
          "internalType": "string",
          "name": "",
          "type": "string"
        }
      ],
      "stateMutability": "view",
      "type": "function",
      "constant": true
    },
    {
      "inputs": [
        {
          "internalType": "uint256",
          "name": "tokenId",
          "type": "uint256"
        }
      ],
      "name": "getApproved",
      "outputs": [
        {
          "internalType": "address",
          "name": "",
          "type": "address"
        }
      ],
      "stateMutability": "view",
      "type": "function",
      "constant": true
    },
    {
      "inputs": [
        {
          "internalType": "address",
          "name": "owner",
          "type": "address"
        },
        {
          "internalType": "address",
          "name": "operator",
          "type": "address"
        }
      ],
      "name": "isApprovedForAll",
      "outputs": [
        {
          "internalType": "bool",
          "name": "",
          "type": "bool"
        }
      ],
      "stateMutability": "view",
      "type": "function",
      "constant": true
    },
    {
      "inputs": [],
      "name": "name",
      "outputs": [
        {
          "internalType": "string",
          "name": "",
          "type": "string"
        }
      ],
      "stateMutability": "view",
      "type": "function",
      "constant": true
    },
    {
      "inputs": [
        {
          "internalType": "uint256",
          "name": "tokenId",
          "type": "uint256"
        }
      ],
      "name": "ownerOf",
      "outputs": [
        {
          "internalType": "address",
          "name": "",
          "type": "address"
        }
      ],
      "stateMutability": "view",
      "type": "function",
      "constant": true
    },
    {
      "inputs": [
        {
          "internalType": "uint256",
          "name": "",
          "type": "uint256"
        }
      ],
      "name": "players",
      "outputs": [
        {
          "internalType": "string",
          "name": "name",
          "type": "string"
        },
        {
          "internalType": "string",
          "name": "position",
          "type": "string"
        },
        {
          "internalType": "string",
          "name": "club",
          "type": "string"
        },
        {
          "internalType": "string",
          "name": "country",
          "type": "string"
        }
      ],
      "stateMutability": "view",
      "type": "function",
      "constant": true
    },
    {
      "inputs": [
        {
          "internalType": "address",
          "name": "from",
          "type": "address"
        },
        {
          "internalType": "address",
          "name": "to",
          "type": "address"
        },
        {
          "internalType": "uint256",
          "name": "tokenId",
          "type": "uint256"
        }
      ],
      "name": "safeTransferFrom",
      "outputs": [],
      "stateMutability": "nonpayable",
      "type": "function"
    },
    {
      "inputs": [
        {
          "internalType": "address",
          "name": "from",
          "type": "address"
        },
        {
          "internalType": "address",
          "name": "to",
          "type": "address"
        },
        {
          "internalType": "uint256",
          "name": "tokenId",
          "type": "uint256"
        },
        {
          "internalType": "bytes",
          "name": "_data",
          "type": "bytes"
        }
      ],
      "name": "safeTransferFrom",
      "outputs": [],
      "stateMutability": "nonpayable",
      "type": "function"
    },
    {
      "inputs": [
        {
          "internalType": "address",
          "name": "operator",
          "type": "address"
        },
        {
          "internalType": "bool",
          "name": "approved",
          "type": "bool"
        }
      ],
      "name": "setApprovalForAll",
      "outputs": [],
      "stateMutability": "nonpayable",
      "type": "function"
    },
    {
      "inputs": [
        {
          "internalType": "bytes4",
          "name": "interfaceId",
          "type": "bytes4"
        }
      ],
      "name": "supportsInterface",
      "outputs": [
        {
          "internalType": "bool",
          "name": "",
          "type": "bool"
        }
      ],
      "stateMutability": "view",
      "type": "function",
      "constant": true
    },
    {
      "inputs": [],
      "name": "symbol",
      "outputs": [
        {
          "internalType": "string",
          "name": "",
          "type": "string"
        }
      ],
      "stateMutability": "view",
      "type": "function",
      "constant": true
    },
    {
      "inputs": [
        {
          "internalType": "uint256",
          "name": "index",
          "type": "uint256"
        }
      ],
      "name": "tokenByIndex",
      "outputs": [
        {
          "internalType": "uint256",
          "name": "",
          "type": "uint256"
        }
      ],
      "stateMutability": "view",
      "type": "function",
      "constant": true
    },
    {
      "inputs": [
        {
          "internalType": "address",
          "name": "owner",
          "type": "address"
        },
        {
          "internalType": "uint256",
          "name": "index",
          "type": "uint256"
        }
      ],
      "name": "tokenOfOwnerByIndex",
      "outputs": [
        {
          "internalType": "uint256",
          "name": "",
          "type": "uint256"
        }
      ],
      "stateMutability": "view",
      "type": "function",
      "constant": true
    },
    {
      "inputs": [
        {
          "internalType": "uint256",
          "name": "tokenId",
          "type": "uint256"
        }
      ],
      "name": "tokenURI",
      "outputs": [
        {
          "internalType": "string",
          "name": "",
          "type": "string"
        }
      ],
      "stateMutability": "view",
      "type": "function",
      "constant": true
    },
    {
      "inputs": [],
      "name": "totalSupply",
      "outputs": [
        {
          "internalType": "uint256",
          "name": "",
          "type": "uint256"
        }
      ],
      "stateMutability": "view",
      "type": "function",
      "constant": true
    },
    {
      "inputs": [
        {
          "internalType": "address",
          "name": "from",
          "type": "address"
        },
        {
          "internalType": "address",
          "name": "to",
          "type": "address"
        },
        {
          "internalType": "uint256",
          "name": "tokenId",
          "type": "uint256"
        }
      ],
      "name": "transferFrom",
      "outputs": [],
      "stateMutability": "nonpayable",
      "type": "function"
    },
    {
      "inputs": [
        {
          "components": [
            {
              "internalType": "string",
              "name": "name",
              "type": "string"
            },
            {
              "internalType": "string",
              "name": "position",
              "type": "string"
            },
            {
              "internalType": "string",
              "name": "club",
              "type": "string"
            },
            {
              "internalType": "string",
              "name": "country",
              "type": "string"
            }
          ],
          "internalType": "struct FifaToken.Player",
          "name": "_player",
          "type": "tuple"
        }
      ],
      "name": "mint",
      "outputs": [],
      "stateMutability": "nonpayable",
      "type": "function"
    }
  ],
  "bytecode": "0x60806040523480156200001157600080fd5b506040518060400160405280600981526020017f46696661546f6b656e00000000000000000000000000000000000000000000008152506040518060400160405280600281526020017f4654000000000000000000000000000000000000000000000000000000000000815250620000966301ffc9a760e01b6200011860201b60201c565b8160069080519060200190620000ae929190620001f0565b508060079080519060200190620000c7929190620001f0565b50620000e06380ac58cd60e01b6200011860201b60201c565b620000f8635b5e139f60e01b6200011860201b60201c565b6200011063780e9d6360e01b6200011860201b60201c565b505062000314565b63ffffffff60e01b817bffffffffffffffffffffffffffffffffffffffffffffffffffffffff1916141562000184576040517f08c379a00000000000000000000000000000000000000000000000000000000081526004016200017b90620002e1565b60405180910390fd5b6001600080837bffffffffffffffffffffffffffffffffffffffffffffffffffffffff19167bffffffffffffffffffffffffffffffffffffffffffffffffffffffff1916815260200190815260200160002060006101000a81548160ff02191690831515021790555050565b828054600181600116156101000203166002900490600052602060002090601f016020900481019282601f106200023357805160ff191683800117855562000264565b8280016001018555821562000264579182015b828111156200026357825182559160200191906001019062000246565b5b50905062000273919062000277565b5090565b6200029c91905b80821115620002985760008160009055506001016200027e565b5090565b90565b6000620002ae601c8362000303565b91507f4552433136353a20696e76616c696420696e74657266616365206964000000006000830152602082019050919050565b60006020820190508181036000830152620002fc816200029f565b9050919050565b600082825260208201905092915050565b61329d80620003246000396000f3fe608060405234801561001057600080fd5b50600436106101215760003560e01c806356f76be6116100ad578063a22cb46511610071578063a22cb4651461032e578063b88d4fde1461034a578063c87b56dd14610366578063e985e9c514610396578063f71d96cb146103c657610121565b806356f76be6146102765780636352211e146102925780636c0360eb146102c257806370a08231146102e057806395d89b411461031057610121565b806318160ddd116100f457806318160ddd146101c057806323b872dd146101de5780632f745c59146101fa57806342842e0e1461022a5780634f6ccce71461024657610121565b806301ffc9a71461012657806306fdde0314610156578063081812fc14610174578063095ea7b3146101a4575b600080fd5b610140600480360381019061013b919061248d565b6103f9565b60405161014d9190612d68565b60405180910390f35b61015e610460565b60405161016b9190612d83565b60405180910390f35b61018e60048036038101906101899190612520565b610502565b60405161019b9190612d01565b60405180910390f35b6101be60048036038101906101b99190612451565b610587565b005b6101c861069f565b6040516101d59190613006565b60405180910390f35b6101f860048036038101906101f3919061234b565b6106b0565b005b610214600480360381019061020f9190612451565b610710565b6040516102219190613006565b60405180910390f35b610244600480360381019061023f919061234b565b61076b565b005b610260600480360381019061025b9190612520565b61078b565b60405161026d9190613006565b60405180910390f35b610290600480360381019061028b91906124df565b6107ae565b005b6102ac60048036038101906102a79190612520565b61091c565b6040516102b99190612d01565b60405180910390f35b6102ca610953565b6040516102d79190612d83565b60405180910390f35b6102fa60048036038101906102f591906122e6565b6109f5565b6040516103079190613006565b60405180910390f35b610318610ab4565b6040516103259190612d83565b60405180910390f35b61034860048036038101906103439190612415565b610b56565b005b610364600480360381019061035f919061239a565b610cd7565b005b610380600480360381019061037b9190612520565b610d39565b60405161038d9190612d83565b60405180910390f35b6103b060048036038101906103ab919061230f565b610ec4565b6040516103bd9190612d68565b60405180910390f35b6103e060048036038101906103db9190612520565b610f58565b6040516103f09493929190612da5565b60405180910390f35b6000806000837bffffffffffffffffffffffffffffffffffffffffffffffffffffffff19167bffffffffffffffffffffffffffffffffffffffffffffffffffffffff1916815260200190815260200160002060009054906101000a900460ff169050919050565b606060068054600181600116156101000203166002900480601f0160208091040260200160405190810160405280929190818152602001828054600181600116156101000203166002900480156104f85780601f106104cd576101008083540402835291602001916104f8565b820191906000526020600020905b8154815290600101906020018083116104db57829003601f168201915b5050505050905090565b600061050d826111f5565b61054c576040517f08c379a000000000000000000000000000000000000000000000000000000000815260040161054390612f66565b60405180910390fd5b6004600083815260200190815260200160002060009054906101000a900473ffffffffffffffffffffffffffffffffffffffff169050919050565b60006105928261091c565b90508073ffffffffffffffffffffffffffffffffffffffff168373ffffffffffffffffffffffffffffffffffffffff161415610603576040517f08c379a00000000000000000000000000000000000000000000000000000000081526004016105fa90612fc6565b60405180910390fd5b8073ffffffffffffffffffffffffffffffffffffffff16610622611212565b73ffffffffffffffffffffffffffffffffffffffff16148061065157506106508161064b611212565b610ec4565b5b610690576040517f08c379a000000000000000000000000000000000000000000000000000000000815260040161068790612ee6565b60405180910390fd5b61069a838361121a565b505050565b60006106ab60026112d3565b905090565b6106c16106bb611212565b826112e8565b610700576040517f08c379a00000000000000000000000000000000000000000000000000000000081526004016106f790612fe6565b60405180910390fd5b61070b8383836113c6565b505050565b600061076382600160008673ffffffffffffffffffffffffffffffffffffffff1673ffffffffffffffffffffffffffffffffffffffff1681526020019081526020016000206115dd90919063ffffffff16565b905092915050565b61078683838360405180602001604052806000815250610cd7565b505050565b6000806107a28360026115f790919063ffffffff16565b50905080915050919050565b60001515600b82600001516040516107c69190612cc6565b908152602001604051809103902060009054906101000a900460ff16151514610824576040517f08c379a000000000000000000000000000000000000000000000000000000000815260040161081b90612e46565b60405180910390fd5b600a819080600181540180825580915050600190039060005260206000209060040201600090919091909150600082015181600001908051906020019061086c92919061205c565b50602082015181600101908051906020019061088992919061205c565b5060408201518160020190805190602001906108a692919061205c565b5060608201518160030190805190602001906108c392919061205c565b50505060006001600a805490500390506001600b83600001516040516108e99190612cc6565b908152602001604051809103902060006101000a81548160ff0219169083151502179055506109183382611626565b5050565b600061094c8260405180606001604052806029815260200161323f6029913960026117b49092919063ffffffff16565b9050919050565b606060098054600181600116156101000203166002900480601f0160208091040260200160405190810160405280929190818152602001828054600181600116156101000203166002900480156109eb5780601f106109c0576101008083540402835291602001916109eb565b820191906000526020600020905b8154815290600101906020018083116109ce57829003601f168201915b5050505050905090565b60008073ffffffffffffffffffffffffffffffffffffffff168273ffffffffffffffffffffffffffffffffffffffff161415610a66576040517f08c379a0000000000000000000000000000000000000000000000000000000008152600401610a5d90612f06565b60405180910390fd5b610aad600160008473ffffffffffffffffffffffffffffffffffffffff1673ffffffffffffffffffffffffffffffffffffffff1681526020019081526020016000206117d3565b9050919050565b606060078054600181600116156101000203166002900480601f016020809104026020016040519081016040528092919081815260200182805460018160011615610100020316600290048015610b4c5780601f10610b2157610100808354040283529160200191610b4c565b820191906000526020600020905b815481529060010190602001808311610b2f57829003601f168201915b5050505050905090565b610b5e611212565b73ffffffffffffffffffffffffffffffffffffffff168273ffffffffffffffffffffffffffffffffffffffff161415610bcc576040517f08c379a0000000000000000000000000000000000000000000000000000000008152600401610bc390612ea6565b60405180910390fd5b8060056000610bd9611212565b73ffffffffffffffffffffffffffffffffffffffff1673ffffffffffffffffffffffffffffffffffffffff16815260200190815260200160002060008473ffffffffffffffffffffffffffffffffffffffff1673ffffffffffffffffffffffffffffffffffffffff16815260200190815260200160002060006101000a81548160ff0219169083151502179055508173ffffffffffffffffffffffffffffffffffffffff16610c86611212565b73ffffffffffffffffffffffffffffffffffffffff167f17307eab39ab6107e8899845ad3d59bd9653f200f220920489ca2b5937696c3183604051610ccb9190612d68565b60405180910390a35050565b610ce8610ce2611212565b836112e8565b610d27576040517f08c379a0000000000000000000000000000000000000000000000000000000008152600401610d1e90612fe6565b60405180910390fd5b610d33848484846117e8565b50505050565b6060610d44826111f5565b610d83576040517f08c379a0000000000000000000000000000000000000000000000000000000008152600401610d7a90612fa6565b60405180910390fd5b6060600860008481526020019081526020016000208054600181600116156101000203166002900480601f016020809104026020016040519081016040528092919081815260200182805460018160011615610100020316600290048015610e2c5780601f10610e0157610100808354040283529160200191610e2c565b820191906000526020600020905b815481529060010190602001808311610e0f57829003601f168201915b50505050509050600060098054600181600116156101000203166002900490501415610e5b5780915050610ebf565b600081511115610e9057600981604051602001610e79929190612cdd565b604051602081830303815290604052915050610ebf565b6009610e9b84611844565b604051602001610eac929190612cdd565b6040516020818303038152906040529150505b919050565b6000600560008473ffffffffffffffffffffffffffffffffffffffff1673ffffffffffffffffffffffffffffffffffffffff16815260200190815260200160002060008373ffffffffffffffffffffffffffffffffffffffff1673ffffffffffffffffffffffffffffffffffffffff16815260200190815260200160002060009054906101000a900460ff16905092915050565b600a8181548110610f6557fe5b9060005260206000209060040201600091509050806000018054600181600116156101000203166002900480601f0160208091040260200160405190810160405280929190818152602001828054600181600116156101000203166002900480156110115780601f10610fe657610100808354040283529160200191611011565b820191906000526020600020905b815481529060010190602001808311610ff457829003601f168201915b505050505090806001018054600181600116156101000203166002900480601f0160208091040260200160405190810160405280929190818152602001828054600181600116156101000203166002900480156110af5780601f10611084576101008083540402835291602001916110af565b820191906000526020600020905b81548152906001019060200180831161109257829003601f168201915b505050505090806002018054600181600116156101000203166002900480601f01602080910402602001604051908101604052809291908181526020018280546001816001161561010002031660029004801561114d5780601f106111225761010080835404028352916020019161114d565b820191906000526020600020905b81548152906001019060200180831161113057829003601f168201915b505050505090806003018054600181600116156101000203166002900480601f0160208091040260200160405190810160405280929190818152602001828054600181600116156101000203166002900480156111eb5780601f106111c0576101008083540402835291602001916111eb565b820191906000526020600020905b8154815290600101906020018083116111ce57829003601f168201915b5050505050905084565b600061120b82600261198b90919063ffffffff16565b9050919050565b600033905090565b816004600083815260200190815260200160002060006101000a81548173ffffffffffffffffffffffffffffffffffffffff021916908373ffffffffffffffffffffffffffffffffffffffff160217905550808273ffffffffffffffffffffffffffffffffffffffff1661128d8361091c565b73ffffffffffffffffffffffffffffffffffffffff167f8c5be1e5ebec7d5bd14f71427d1e84f3dd0314c0f7b2291e5b200ac8c7c3b92560405160405180910390a45050565b60006112e1826000016119a5565b9050919050565b60006112f3826111f5565b611332576040517f08c379a000000000000000000000000000000000000000000000000000000000815260040161132990612ec6565b60405180910390fd5b600061133d8361091c565b90508073ffffffffffffffffffffffffffffffffffffffff168473ffffffffffffffffffffffffffffffffffffffff1614806113ac57508373ffffffffffffffffffffffffffffffffffffffff1661139484610502565b73ffffffffffffffffffffffffffffffffffffffff16145b806113bd57506113bc8185610ec4565b5b91505092915050565b8273ffffffffffffffffffffffffffffffffffffffff166113e68261091c565b73ffffffffffffffffffffffffffffffffffffffff161461143c576040517f08c379a000000000000000000000000000000000000000000000000000000000815260040161143390612f86565b60405180910390fd5b600073ffffffffffffffffffffffffffffffffffffffff168273ffffffffffffffffffffffffffffffffffffffff1614156114ac576040517f08c379a00000000000000000000000000000000000000000000000000000000081526004016114a390612e86565b60405180910390fd5b6114b78383836119b6565b6114c260008261121a565b61151381600160008673ffffffffffffffffffffffffffffffffffffffff1673ffffffffffffffffffffffffffffffffffffffff1681526020019081526020016000206119bb90919063ffffffff16565b5061156581600160008573ffffffffffffffffffffffffffffffffffffffff1673ffffffffffffffffffffffffffffffffffffffff1681526020019081526020016000206119d590919063ffffffff16565b5061157c818360026119ef9092919063ffffffff16565b50808273ffffffffffffffffffffffffffffffffffffffff168473ffffffffffffffffffffffffffffffffffffffff167fddf252ad1be2c89b69c2b068fc378daa952ba7f163c4a11628f55a4df523b3ef60405160405180910390a4505050565b60006115ec8360000183611a24565b60001c905092915050565b60008060008061160a8660000186611a91565b915091508160001c8160001c8090509350935050509250929050565b600073ffffffffffffffffffffffffffffffffffffffff168273ffffffffffffffffffffffffffffffffffffffff161415611696576040517f08c379a000000000000000000000000000000000000000000000000000000000815260040161168d90612f46565b60405180910390fd5b61169f816111f5565b156116df576040517f08c379a00000000000000000000000000000000000000000000000000000000081526004016116d690612e66565b60405180910390fd5b6116eb600083836119b6565b61173c81600160008573ffffffffffffffffffffffffffffffffffffffff1673ffffffffffffffffffffffffffffffffffffffff1681526020019081526020016000206119d590919063ffffffff16565b50611753818360026119ef9092919063ffffffff16565b50808273ffffffffffffffffffffffffffffffffffffffff16600073ffffffffffffffffffffffffffffffffffffffff167fddf252ad1be2c89b69c2b068fc378daa952ba7f163c4a11628f55a4df523b3ef60405160405180910390a45050565b60006117c7846000018460001b84611b14565b60001c90509392505050565b60006117e182600001611ba5565b9050919050565b6117f38484846113c6565b6117ff84848484611bb6565b61183e576040517f08c379a000000000000000000000000000000000000000000000000000000000815260040161183590612e26565b60405180910390fd5b50505050565b6060600082141561188c576040518060400160405280600181526020017f30000000000000000000000000000000000000000000000000000000000000008152509050611986565b600082905060005b600082146118b6578080600101915050600a82816118ae57fe5b049150611894565b60608167ffffffffffffffff811180156118cf57600080fd5b506040519080825280601f01601f1916602001820160405280156119025781602001600182028036833780820191505090505b50905060006001830390508593505b6000841461197e57600a848161192357fe5b0660300160f81b8282806001900393508151811061193d57fe5b60200101907effffffffffffffffffffffffffffffffffffffffffffffffffffffffffffff1916908160001a905350600a848161197657fe5b049350611911565b819450505050505b919050565b600061199d836000018360001b611d97565b905092915050565b600081600001805490509050919050565b505050565b60006119cd836000018360001b611dba565b905092915050565b60006119e7836000018360001b611ea2565b905092915050565b6000611a1b846000018460001b8473ffffffffffffffffffffffffffffffffffffffff1660001b611f12565b90509392505050565b600081836000018054905011611a6f576040517f08c379a0000000000000000000000000000000000000000000000000000000008152600401611a6690612e06565b60405180910390fd5b826000018281548110611a7e57fe5b9060005260206000200154905092915050565b60008082846000018054905011611add576040517f08c379a0000000000000000000000000000000000000000000000000000000008152600401611ad490612f26565b60405180910390fd5b6000846000018481548110611aee57fe5b906000526020600020906002020190508060000154816001015492509250509250929050565b60008084600101600085815260200190815260200160002054905060008114158390611b76576040517f08c379a0000000000000000000000000000000000000000000000000000000008152600401611b6d9190612d83565b60405180910390fd5b50846000016001820381548110611b8957fe5b9060005260206000209060020201600101549150509392505050565b600081600001805490509050919050565b6000611bd78473ffffffffffffffffffffffffffffffffffffffff16611fee565b611be45760019050611d8f565b600060608573ffffffffffffffffffffffffffffffffffffffff1663150b7a0260e01b611c0f611212565b898888604051602401611c259493929190612d1c565b604051602081830303815290604052907bffffffffffffffffffffffffffffffffffffffffffffffffffffffff19166020820180517bffffffffffffffffffffffffffffffffffffffffffffffffffffffff8381831617835250505050604051611c8f9190612caf565b6000604051808303816000865af19150503d8060008114611ccc576040519150601f19603f3d011682016040523d82523d6000602084013e611cd1565b606091505b509150915081611d2957600081511115611cee5780518082602001fd5b6040517f08c379a0000000000000000000000000000000000000000000000000000000008152600401611d2090612e26565b60405180910390fd5b600081806020019051810190611d3f91906124b6565b905063150b7a0260e01b7bffffffffffffffffffffffffffffffffffffffffffffffffffffffff1916817bffffffffffffffffffffffffffffffffffffffffffffffffffffffff19161493505050505b949350505050565b600080836001016000848152602001908152602001600020541415905092915050565b60008083600101600084815260200190815260200160002054905060008114611e965760006001820390506000600186600001805490500390506000866000018281548110611e0557fe5b9060005260206000200154905080876000018481548110611e2257fe5b9060005260206000200181905550600183018760010160008381526020019081526020016000208190555086600001805480611e5a57fe5b60019003818190600052602060002001600090559055866001016000878152602001908152602001600020600090556001945050505050611e9c565b60009150505b92915050565b6000611eae8383612039565b611f07578260000182908060018154018082558091505060019003906000526020600020016000909190919091505582600001805490508360010160008481526020019081526020016000208190555060019050611f0c565b600090505b92915050565b6000808460010160008581526020019081526020016000205490506000811415611fb957846000016040518060400160405280868152602001858152509080600181540180825580915050600190039060005260206000209060020201600090919091909150600082015181600001556020820151816001015550508460000180549050856001016000868152602001908152602001600020819055506001915050611fe7565b82856000016001830381548110611fcc57fe5b90600052602060002090600202016001018190555060009150505b9392505050565b60008060007fc5d2460186f7233c927e7db2dcc703c0e500b653ca82273b7bfad8045d85a47060001b9050833f915080821415801561203057506000801b8214155b92505050919050565b600080836001016000848152602001908152602001600020541415905092915050565b828054600181600116156101000203166002900490600052602060002090601f016020900481019282601f1061209d57805160ff19168380011785556120cb565b828001600101855582156120cb579182015b828111156120ca5782518255916020019190600101906120af565b5b5090506120d891906120dc565b5090565b6120fe91905b808211156120fa5760008160009055506001016120e2565b5090565b90565b600081359050612110816131e2565b92915050565b600081359050612125816131f9565b92915050565b60008135905061213a81613210565b92915050565b60008151905061214f81613210565b92915050565b600082601f83011261216657600080fd5b81356121796121748261304e565b613021565b9150808252602083016020830185838301111561219557600080fd5b6121a083828461318f565b50505092915050565b600082601f8301126121ba57600080fd5b81356121cd6121c88261307a565b613021565b915080825260208301602083018583830111156121e957600080fd5b6121f483828461318f565b50505092915050565b60006080828403121561220f57600080fd5b6122196080613021565b9050600082013567ffffffffffffffff81111561223557600080fd5b612241848285016121a9565b600083015250602082013567ffffffffffffffff81111561226157600080fd5b61226d848285016121a9565b602083015250604082013567ffffffffffffffff81111561228d57600080fd5b612299848285016121a9565b604083015250606082013567ffffffffffffffff8111156122b957600080fd5b6122c5848285016121a9565b60608301525092915050565b6000813590506122e081613227565b92915050565b6000602082840312156122f857600080fd5b600061230684828501612101565b91505092915050565b6000806040838503121561232257600080fd5b600061233085828601612101565b925050602061234185828601612101565b9150509250929050565b60008060006060848603121561236057600080fd5b600061236e86828701612101565b935050602061237f86828701612101565b9250506040612390868287016122d1565b9150509250925092565b600080600080608085870312156123b057600080fd5b60006123be87828801612101565b94505060206123cf87828801612101565b93505060406123e0878288016122d1565b925050606085013567ffffffffffffffff8111156123fd57600080fd5b61240987828801612155565b91505092959194509250565b6000806040838503121561242857600080fd5b600061243685828601612101565b925050602061244785828601612116565b9150509250929050565b6000806040838503121561246457600080fd5b600061247285828601612101565b9250506020612483858286016122d1565b9150509250929050565b60006020828403121561249f57600080fd5b60006124ad8482850161212b565b91505092915050565b6000602082840312156124c857600080fd5b60006124d684828501612140565b91505092915050565b6000602082840312156124f157600080fd5b600082013567ffffffffffffffff81111561250b57600080fd5b612517848285016121fd565b91505092915050565b60006020828403121561253257600080fd5b6000612540848285016122d1565b91505092915050565b6125528161311b565b82525050565b61256181613109565b82525050565b6125708161312d565b82525050565b6000612581826130bb565b61258b81856130d1565b935061259b81856020860161319e565b6125a4816131d1565b840191505092915050565b60006125ba826130bb565b6125c481856130e2565b93506125d481856020860161319e565b80840191505092915050565b60006125eb826130c6565b6125f581856130ed565b935061260581856020860161319e565b61260e816131d1565b840191505092915050565b6000612624826130c6565b61262e81856130fe565b935061263e81856020860161319e565b80840191505092915050565b600081546001811660008114612667576001811461268c576126d0565b607f600283041661267881876130fe565b955060ff19831686528086019350506126d0565b6002820461269a81876130fe565b95506126a5856130a6565b60005b828110156126c7578154818901526001820191506020810190506126a8565b82880195505050505b505092915050565b60006126e56022836130ed565b91507f456e756d657261626c655365743a20696e646578206f7574206f6620626f756e60008301527f64730000000000000000000000000000000000000000000000000000000000006020830152604082019050919050565b600061274b6032836130ed565b91507f4552433732313a207472616e7366657220746f206e6f6e20455243373231526560008301527f63656976657220696d706c656d656e74657200000000000000000000000000006020830152604082019050919050565b60006127b1601b836130ed565b91507f506c6179657220746f6b656e20616c72656164792065786973747300000000006000830152602082019050919050565b60006127f1601c836130ed565b91507f4552433732313a20746f6b656e20616c7265616479206d696e746564000000006000830152602082019050919050565b60006128316024836130ed565b91507f4552433732313a207472616e7366657220746f20746865207a65726f2061646460008301527f72657373000000000000000000000000000000000000000000000000000000006020830152604082019050919050565b60006128976019836130ed565b91507f4552433732313a20617070726f766520746f2063616c6c6572000000000000006000830152602082019050919050565b60006128d7602c836130ed565b91507f4552433732313a206f70657261746f7220717565727920666f72206e6f6e657860008301527f697374656e7420746f6b656e00000000000000000000000000000000000000006020830152604082019050919050565b600061293d6038836130ed565b91507f4552433732313a20617070726f76652063616c6c6572206973206e6f74206f7760008301527f6e6572206e6f7220617070726f76656420666f7220616c6c00000000000000006020830152604082019050919050565b60006129a3602a836130ed565b91507f4552433732313a2062616c616e636520717565727920666f7220746865207a6560008301527f726f2061646472657373000000000000000000000000000000000000000000006020830152604082019050919050565b6000612a096022836130ed565b91507f456e756d657261626c654d61703a20696e646578206f7574206f6620626f756e60008301527f64730000000000000000000000000000000000000000000000000000000000006020830152604082019050919050565b6000612a6f6020836130ed565b91507f4552433732313a206d696e7420746f20746865207a65726f20616464726573736000830152602082019050919050565b6000612aaf602c836130ed565b91507f4552433732313a20617070726f76656420717565727920666f72206e6f6e657860008301527f697374656e7420746f6b656e00000000000000000000000000000000000000006020830152604082019050919050565b6000612b156029836130ed565b91507f4552433732313a207472616e73666572206f6620746f6b656e2074686174206960008301527f73206e6f74206f776e00000000000000000000000000000000000000000000006020830152604082019050919050565b6000612b7b602f836130ed565b91507f4552433732314d657461646174613a2055524920717565727920666f72206e6f60008301527f6e6578697374656e7420746f6b656e00000000000000000000000000000000006020830152604082019050919050565b6000612be16021836130ed565b91507f4552433732313a20617070726f76616c20746f2063757272656e74206f776e6560008301527f72000000000000000000000000000000000000000000000000000000000000006020830152604082019050919050565b6000612c476031836130ed565b91507f4552433732313a207472616e736665722063616c6c6572206973206e6f74206f60008301527f776e6572206e6f7220617070726f7665640000000000000000000000000000006020830152604082019050919050565b612ca981613185565b82525050565b6000612cbb82846125af565b915081905092915050565b6000612cd28284612619565b915081905092915050565b6000612ce9828561264a565b9150612cf58284612619565b91508190509392505050565b6000602082019050612d166000830184612558565b92915050565b6000608082019050612d316000830187612549565b612d3e6020830186612558565b612d4b6040830185612ca0565b8181036060830152612d5d8184612576565b905095945050505050565b6000602082019050612d7d6000830184612567565b92915050565b60006020820190508181036000830152612d9d81846125e0565b905092915050565b60006080820190508181036000830152612dbf81876125e0565b90508181036020830152612dd381866125e0565b90508181036040830152612de781856125e0565b90508181036060830152612dfb81846125e0565b905095945050505050565b60006020820190508181036000830152612e1f816126d8565b9050919050565b60006020820190508181036000830152612e3f8161273e565b9050919050565b60006020820190508181036000830152612e5f816127a4565b9050919050565b60006020820190508181036000830152612e7f816127e4565b9050919050565b60006020820190508181036000830152612e9f81612824565b9050919050565b60006020820190508181036000830152612ebf8161288a565b9050919050565b60006020820190508181036000830152612edf816128ca565b9050919050565b60006020820190508181036000830152612eff81612930565b9050919050565b60006020820190508181036000830152612f1f81612996565b9050919050565b60006020820190508181036000830152612f3f816129fc565b9050919050565b60006020820190508181036000830152612f5f81612a62565b9050919050565b60006020820190508181036000830152612f7f81612aa2565b9050919050565b60006020820190508181036000830152612f9f81612b08565b9050919050565b60006020820190508181036000830152612fbf81612b6e565b9050919050565b60006020820190508181036000830152612fdf81612bd4565b9050919050565b60006020820190508181036000830152612fff81612c3a565b9050919050565b600060208201905061301b6000830184612ca0565b92915050565b6000604051905081810181811067ffffffffffffffff8211171561304457600080fd5b8060405250919050565b600067ffffffffffffffff82111561306557600080fd5b601f19601f8301169050602081019050919050565b600067ffffffffffffffff82111561309157600080fd5b601f19601f8301169050602081019050919050565b60008190508160005260206000209050919050565b600081519050919050565b600081519050919050565b600082825260208201905092915050565b600081905092915050565b600082825260208201905092915050565b600081905092915050565b600061311482613165565b9050919050565b600061312682613165565b9050919050565b60008115159050919050565b60007fffffffff0000000000000000000000000000000000000000000000000000000082169050919050565b600073ffffffffffffffffffffffffffffffffffffffff82169050919050565b6000819050919050565b82818337600083830152505050565b60005b838110156131bc5780820151818401526020810190506131a1565b838111156131cb576000848401525b50505050565b6000601f19601f8301169050919050565b6131eb81613109565b81146131f657600080fd5b50565b6132028161312d565b811461320d57600080fd5b50565b61321981613139565b811461322457600080fd5b50565b61323081613185565b811461323b57600080fd5b5056fe4552433732313a206f776e657220717565727920666f72206e6f6e6578697374656e7420746f6b656ea264697066735822122021f94cabb7ac0b81650947d722ae1008a2768e7370e339c6f14beaa32c69e3c064736f6c63430006090033",
  "immutableReferences": {},
  "source": "// SPDX-License-Identifier: MIT\n\npragma solidity ^0.6.0;\npragma experimental ABIEncoderV2;\n\nimport \"./ERC721.sol\";\n\ncontract FifaToken is ERC721 {\n\n\tstruct Player\n\t{\n\t\tstring name;\n\t\tstring position;\n\t\tstring club;\n\t\tstring country;\n\t}\n\n\tPlayer[] public players;\n\n\tmapping(string => bool) _playerExists;\n\n\tconstructor () ERC721(\"FifaToken\",\"FT\") public {\n\t}\n\n\tfunction mint(Player memory _player) public {\n\t\trequire(_playerExists[_player.name] == false, \"Player token already exists\");\n\t\tplayers.push(_player);\n\t\tuint _id = players.length - 1;\n\t\t_playerExists[_player.name] = true;\n\t\t_mint(msg.sender, _id);\n\t\t\n\t\t//Call the mint function\n\t\t//Track it\n\t}\n}",
  "sourcePath": "/Users/malhar197/Desktop/1010/final-project/contracts/FifaToken.sol",
  "compiler": {
    "name": "solc",
    "version": "0.6.9+commit.3e3065ac.Emscripten.clang"
  },
  "schemaVersion": "3.1.0",
  "updatedAt": "2020-06-07T23:52:21.930Z",
  "networkType": "ethereum",
  "devdoc": {
    "methods": {
      "approve(address,uint256)": {
        "details": "Approves another address to transfer the given token ID The zero address indicates there is no approved address. There can only be one approved address per token at a given time. Can only be called by the token owner or an approved operator.",
        "params": {
          "to": "address to be approved for the given token ID",
          "tokenId": "uint256 ID of the token to be approved"
        }
      },
      "balanceOf(address)": {
        "details": "Gets the balance of the specified address.",
        "params": {
          "owner": "address to query the balance of"
        },
        "returns": {
          "_0": "uint256 representing the amount owned by the passed address"
        }
      },
      "baseURI()": {
        "details": "Returns the base URI set via {_setBaseURI}. This will be automatically added as a prefix in {tokenURI} to each token's URI, or to the token ID if no specific URI is set for that token ID."
      },
      "getApproved(uint256)": {
        "details": "Gets the approved address for a token ID, or zero if no address set Reverts if the token ID does not exist.",
        "params": {
          "tokenId": "uint256 ID of the token to query the approval of"
        },
        "returns": {
          "_0": "address currently approved for the given token ID"
        }
      },
      "isApprovedForAll(address,address)": {
        "details": "Tells whether an operator is approved by a given owner.",
        "params": {
          "operator": "operator address which you want to query the approval of",
          "owner": "owner address which you want to query the approval of"
        },
        "returns": {
          "_0": "bool whether the given operator is approved by the given owner"
        }
      },
      "name()": {
        "details": "Gets the token name.",
        "returns": {
          "_0": "string representing the token name"
        }
      },
      "ownerOf(uint256)": {
        "details": "Gets the owner of the specified token ID.",
        "params": {
          "tokenId": "uint256 ID of the token to query the owner of"
        },
        "returns": {
          "_0": "address currently marked as the owner of the given token ID"
        }
      },
      "safeTransferFrom(address,address,uint256)": {
        "details": "Safely transfers the ownership of a given token ID to another address If the target address is a contract, it must implement {IERC721Receiver-onERC721Received}, which is called upon a safe transfer, and return the magic value `bytes4(keccak256(\"onERC721Received(address,address,uint256,bytes)\"))`; otherwise, the transfer is reverted. Requires the msg.sender to be the owner, approved, or operator",
        "params": {
          "from": "current owner of the token",
          "to": "address to receive the ownership of the given token ID",
          "tokenId": "uint256 ID of the token to be transferred"
        }
      },
      "safeTransferFrom(address,address,uint256,bytes)": {
        "details": "Safely transfers the ownership of a given token ID to another address If the target address is a contract, it must implement {IERC721Receiver-onERC721Received}, which is called upon a safe transfer, and return the magic value `bytes4(keccak256(\"onERC721Received(address,address,uint256,bytes)\"))`; otherwise, the transfer is reverted. Requires the _msgSender() to be the owner, approved, or operator",
        "params": {
          "_data": "bytes data to send along with a safe transfer check",
          "from": "current owner of the token",
          "to": "address to receive the ownership of the given token ID",
          "tokenId": "uint256 ID of the token to be transferred"
        }
      },
      "setApprovalForAll(address,bool)": {
        "details": "Sets or unsets the approval of a given operator An operator is allowed to transfer all tokens of the sender on their behalf.",
        "params": {
          "approved": "representing the status of the approval to be set",
          "operator": "operator address to set the approval"
        }
      },
      "supportsInterface(bytes4)": {
        "details": "See {IERC165-supportsInterface}. Time complexity O(1), guaranteed to always use less than 30 000 gas."
      },
      "symbol()": {
        "details": "Gets the token symbol.",
        "returns": {
          "_0": "string representing the token symbol"
        }
      },
      "tokenByIndex(uint256)": {
        "details": "Gets the token ID at a given index of all the tokens in this contract Reverts if the index is greater or equal to the total number of tokens.",
        "params": {
          "index": "uint256 representing the index to be accessed of the tokens list"
        },
        "returns": {
          "_0": "uint256 token ID at the given index of the tokens list"
        }
      },
      "tokenOfOwnerByIndex(address,uint256)": {
        "details": "Gets the token ID at a given index of the tokens list of the requested owner.",
        "params": {
          "index": "uint256 representing the index to be accessed of the requested tokens list",
          "owner": "address owning the tokens list to be accessed"
        },
        "returns": {
          "_0": "uint256 token ID at the given index of the tokens list owned by the requested address"
        }
      },
      "tokenURI(uint256)": {
        "details": "Returns the URI for a given token ID. May return an empty string. If a base URI is set (via {_setBaseURI}), it is added as a prefix to the token's own URI (via {_setTokenURI}). If there is a base URI but no token URI, the token's ID will be used as its URI when appending it to the base URI. This pattern for autogenerated token URIs can lead to large gas savings. .Examples |=== |`_setBaseURI()` |`_setTokenURI()` |`tokenURI()` | \"\" | \"\" | \"\" | \"\" | \"token.uri/123\" | \"token.uri/123\" | \"token.uri/\" | \"123\" | \"token.uri/123\" | \"token.uri/\" | \"\" | \"token.uri/<tokenId>\" |=== Requirements: - `tokenId` must exist."
      },
      "totalSupply()": {
        "details": "Gets the total amount of tokens stored by the contract.",
        "returns": {
          "_0": "uint256 representing the total amount of tokens"
        }
      },
      "transferFrom(address,address,uint256)": {
        "details": "Transfers the ownership of a given token ID to another address. Usage of this method is discouraged, use {safeTransferFrom} whenever possible. Requires the msg.sender to be the owner, approved, or operator.",
        "params": {
          "from": "current owner of the token",
          "to": "address to receive the ownership of the given token ID",
          "tokenId": "uint256 ID of the token to be transferred"
        }
      }
    }
  },
  "userdoc": {
    "methods": {}
  }
}